{
  "_format": "hh-sol-artifact-1",
  "contractName": "StakingHola",
  "sourceName": "contracts/Staking.sol",
  "abi": [
    {
      "inputs": [
        {
          "internalType": "address",
          "name": "_token",
          "type": "address"
        }
      ],
      "stateMutability": "nonpayable",
      "type": "constructor"
    },
    {
      "anonymous": false,
      "inputs": [
        {
          "indexed": true,
          "internalType": "address",
          "name": "user",
          "type": "address"
        },
        {
          "indexed": false,
          "internalType": "uint256",
          "name": "mtokenAmount",
          "type": "uint256"
        },
        {
          "indexed": false,
          "internalType": "uint256",
          "name": "timeStart",
          "type": "uint256"
        }
      ],
      "name": "Deposit",
      "type": "event"
    },
    {
      "anonymous": false,
      "inputs": [
        {
          "indexed": true,
          "internalType": "address",
          "name": "previousOwner",
          "type": "address"
        },
        {
          "indexed": true,
          "internalType": "address",
          "name": "newOwner",
          "type": "address"
        }
      ],
      "name": "OwnershipTransferred",
      "type": "event"
    },
    {
      "anonymous": false,
      "inputs": [
        {
          "indexed": true,
          "internalType": "address",
          "name": "user",
          "type": "address"
        },
        {
          "indexed": false,
          "internalType": "uint256",
          "name": "mtokenAmount",
          "type": "uint256"
        },
        {
          "indexed": false,
          "internalType": "uint256",
          "name": "depositTime",
          "type": "uint256"
        }
      ],
      "name": "Withdraw",
      "type": "event"
    },
    {
      "inputs": [],
      "name": "balance",
      "outputs": [
        {
          "internalType": "uint256",
          "name": "",
          "type": "uint256"
        }
      ],
      "stateMutability": "view",
      "type": "function"
    },
    {
      "inputs": [],
      "name": "checkTime",
      "outputs": [
        {
          "internalType": "uint256",
          "name": "",
          "type": "uint256"
        }
      ],
      "stateMutability": "view",
      "type": "function"
    },
    {
      "inputs": [
        {
          "internalType": "uint256",
          "name": "_amount",
          "type": "uint256"
        }
      ],
      "name": "deposit",
      "outputs": [],
      "stateMutability": "payable",
      "type": "function"
    },
    {
      "inputs": [
        {
          "internalType": "address",
          "name": "",
          "type": "address"
        }
      ],
      "name": "depositStart",
      "outputs": [
        {
          "internalType": "uint256",
          "name": "",
          "type": "uint256"
        }
      ],
      "stateMutability": "view",
      "type": "function"
    },
    {
      "inputs": [],
      "name": "owner",
      "outputs": [
        {
          "internalType": "address",
          "name": "",
          "type": "address"
        }
      ],
      "stateMutability": "view",
      "type": "function"
    },
    {
      "inputs": [],
      "name": "ownerDepositBalance",
      "outputs": [
        {
          "internalType": "uint256",
          "name": "",
          "type": "uint256"
        }
      ],
      "stateMutability": "view",
      "type": "function"
    },
    {
      "inputs": [
        {
          "internalType": "address",
          "name": "",
          "type": "address"
        }
      ],
      "name": "primaryDeposit",
      "outputs": [
        {
          "internalType": "uint256",
          "name": "",
          "type": "uint256"
        }
      ],
      "stateMutability": "view",
      "type": "function"
    },
    {
      "inputs": [],
      "name": "renounceOwnership",
      "outputs": [],
      "stateMutability": "nonpayable",
      "type": "function"
    },
    {
      "inputs": [],
      "name": "token",
      "outputs": [
        {
          "internalType": "contract IERC20",
          "name": "",
          "type": "address"
        }
      ],
      "stateMutability": "view",
      "type": "function"
    },
    {
      "inputs": [
        {
          "internalType": "address",
          "name": "",
          "type": "address"
        }
      ],
      "name": "tokenBalanceOf",
      "outputs": [
        {
          "internalType": "uint256",
          "name": "",
          "type": "uint256"
        }
      ],
      "stateMutability": "view",
      "type": "function"
    },
    {
      "inputs": [
        {
          "internalType": "address",
          "name": "newOwner",
          "type": "address"
        }
      ],
      "name": "transferOwnership",
      "outputs": [],
      "stateMutability": "nonpayable",
      "type": "function"
    },
    {
      "inputs": [
        {
          "internalType": "uint256",
          "name": "_amount",
          "type": "uint256"
        }
      ],
      "name": "withdraw",
      "outputs": [],
      "stateMutability": "nonpayable",
      "type": "function"
    }
  ],
  "bytecode": "0x608060405234801561001057600080fd5b506040516108d93803806108d983398101604081905261002f916100ad565b6100383361005d565b600180546001600160a01b0319166001600160a01b03929092169190911790556100dd565b600080546001600160a01b038381166001600160a01b0319831681178455604051919092169283917f8be0079c531659141344cd1fd0a4f28419497f9722a3daafe3b4186f6b6457e09190a35050565b6000602082840312156100bf57600080fd5b81516001600160a01b03811681146100d657600080fd5b9392505050565b6107ed806100ec6000396000f3fe6080604052600436106100a75760003560e01c8063b6b55f2511610064578063b6b55f251461018c578063e0c6190d1461019f578063e42c08f2146101c1578063f2fde38b146101ee578063fc0c546a1461020e578063ff87930a1461022e57600080fd5b80632e1a7d4d146100ac5780632e34427f146100ce578063715018a61461010e5780638da5cb5b14610123578063a04588ed14610155578063b69ef8a814610177575b600080fd5b3480156100b857600080fd5b506100cc6100c73660046106f1565b61025b565b005b3480156100da57600080fd5b506100fb6100e936600461070a565b60046020526000908152604090205481565b6040519081526020015b60405180910390f35b34801561011a57600080fd5b506100cc6103c3565b34801561012f57600080fd5b506000546001600160a01b03165b6040516001600160a01b039091168152602001610105565b34801561016157600080fd5b50336000908152600260205260409020546100fb565b34801561018357600080fd5b506100fb6103d7565b6100cc61019a3660046106f1565b610449565b3480156101ab57600080fd5b50336000908152600360205260409020546100fb565b3480156101cd57600080fd5b506100fb6101dc36600461070a565b60026020526000908152604090205481565b3480156101fa57600080fd5b506100cc61020936600461070a565b6105ce565b34801561021a57600080fd5b5060015461013d906001600160a01b031681565b34801561023a57600080fd5b506100fb61024936600461070a565b60036020526000908152604090205481565b336000908152600260205260409020548111156102b35760405162461bcd60e51b815260206004820152601160248201527008ae4e4dee45840dcdee840cadcdeeaced607b1b60448201526064015b60405180910390fd5b336000908152600360205260408120546102cd9042610750565b60015460405163a9059cbb60e01b8152336004820152602481018590529192506001600160a01b03169063a9059cbb906044016020604051808303816000875af115801561031f573d6000803e3d6000fd5b505050506040513d601f19601f820116820180604052508101906103439190610769565b503360009081526002602052604090205461035f908390610750565b33600081815260026020908152604080832094909455600390528281205590517ff279e6a1f5e320cca91135676d9cb6e44ca8a08c0b88342bcdb1144f6511b568906103b79085908590918252602082015260400190565b60405180910390a25050565b6103cb610647565b6103d560006106a1565b565b6001546040516370a0823160e01b81523060048201526000916001600160a01b0316906370a0823190602401602060405180830381865afa158015610420573d6000803e3d6000fd5b505050506040513d601f19601f82011682018060405250810190610444919061078b565b905090565b6000811161048e5760405162461bcd60e51b81526020600482015260126024820152710616d6f756e742063616e6e6f7420626520360741b60448201526064016102aa565b3360009081526002602052604081205490036104dd57336000908152600360205260409020546104bf9042906107a4565b33600090815260036020908152604080832084905560049091529020555b6001546040516323b872dd60e01b8152336004820152306024820152604481018390526001600160a01b03909116906323b872dd906064016020604051808303816000875af1158015610534573d6000803e3d6000fd5b505050506040513d601f19601f820116820180604052508101906105589190610769565b50336000908152600260205260409020546105749082906107a4565b33600081815260026020526040908190209290925590517f90890809c654f11d6e72a28fa60149770a0d11ec6c92319d6ceb2bb0a4ea1a15906105c39084904290918252602082015260400190565b60405180910390a250565b6105d6610647565b6001600160a01b03811661063b5760405162461bcd60e51b815260206004820152602660248201527f4f776e61626c653a206e6577206f776e657220697320746865207a65726f206160448201526564647265737360d01b60648201526084016102aa565b610644816106a1565b50565b6000546001600160a01b031633146103d55760405162461bcd60e51b815260206004820181905260248201527f4f776e61626c653a2063616c6c6572206973206e6f7420746865206f776e657260448201526064016102aa565b600080546001600160a01b038381166001600160a01b0319831681178455604051919092169283917f8be0079c531659141344cd1fd0a4f28419497f9722a3daafe3b4186f6b6457e09190a35050565b60006020828403121561070357600080fd5b5035919050565b60006020828403121561071c57600080fd5b81356001600160a01b038116811461073357600080fd5b9392505050565b634e487b7160e01b600052601160045260246000fd5b818103818111156107635761076361073a565b92915050565b60006020828403121561077b57600080fd5b8151801515811461073357600080fd5b60006020828403121561079d57600080fd5b5051919050565b808201808211156107635761076361073a56fea2646970667358221220bef42468ae924afb390f55c8c1c40ab729e36047ffe9f5d539038a0e4c2ddd5164736f6c63430008110033",
  "linkReferences": {},
  "deployedLinkReferences": {}
}