{
    "_format": "hh-sol-artifact-1",
    "contractName": "HolaMeta",
    "sourceName": "contracts/HolaToken.sol",
    "abi": [
        {
            "inputs": [],
            "stateMutability": "nonpayable",
            "type": "constructor"
        },
        {
            "anonymous": false,
            "inputs": [
                {
                    "indexed": true,
                    "internalType": "address",
                    "name": "owner",
                    "type": "address"
                },
                {
                    "indexed": true,
                    "internalType": "address",
                    "name": "spender",
                    "type": "address"
                },
                {
                    "indexed": false,
                    "internalType": "uint256",
                    "name": "value",
                    "type": "uint256"
                }
            ],
            "name": "Approval",
            "type": "event"
        },
        {
            "anonymous": false,
            "inputs": [
                {
                    "indexed": true,
                    "internalType": "address",
                    "name": "previousOwner",
                    "type": "address"
                },
                {
                    "indexed": true,
                    "internalType": "address",
                    "name": "newOwner",
                    "type": "address"
                }
            ],
            "name": "OwnershipTransferred",
            "type": "event"
        },
        {
            "anonymous": false,
            "inputs": [
                {
                    "indexed": true,
                    "internalType": "address",
                    "name": "from",
                    "type": "address"
                },
                {
                    "indexed": true,
                    "internalType": "address",
                    "name": "to",
                    "type": "address"
                },
                {
                    "indexed": false,
                    "internalType": "uint256",
                    "name": "value",
                    "type": "uint256"
                }
            ],
            "name": "Transfer",
            "type": "event"
        },
        {
            "inputs": [
                {
                    "internalType": "address",
                    "name": "",
                    "type": "address"
                }
            ],
            "name": "addressTime",
            "outputs": [
                {
                    "internalType": "uint256",
                    "name": "",
                    "type": "uint256"
                }
            ],
            "stateMutability": "view",
            "type": "function"
        },
        {
            "inputs": [
                {
                    "internalType": "address[]",
                    "name": "_airdrops",
                    "type": "address[]"
                }
            ],
            "name": "airDrop",
            "outputs": [],
            "stateMutability": "nonpayable",
            "type": "function"
        },
        {
            "inputs": [
                {
                    "internalType": "address",
                    "name": "owner",
                    "type": "address"
                },
                {
                    "internalType": "address",
                    "name": "spender",
                    "type": "address"
                }
            ],
            "name": "allowance",
            "outputs": [
                {
                    "internalType": "uint256",
                    "name": "",
                    "type": "uint256"
                }
            ],
            "stateMutability": "view",
            "type": "function"
        },
        {
            "inputs": [
                {
                    "internalType": "address",
                    "name": "spender",
                    "type": "address"
                },
                {
                    "internalType": "uint256",
                    "name": "amount",
                    "type": "uint256"
                }
            ],
            "name": "approve",
            "outputs": [
                {
                    "internalType": "bool",
                    "name": "",
                    "type": "bool"
                }
            ],
            "stateMutability": "nonpayable",
            "type": "function"
        },
        {
            "inputs": [
                {
                    "internalType": "address",
                    "name": "account",
                    "type": "address"
                }
            ],
            "name": "balanceOf",
            "outputs": [
                {
                    "internalType": "uint256",
                    "name": "",
                    "type": "uint256"
                }
            ],
            "stateMutability": "view",
            "type": "function"
        },
        {
            "inputs": [
                {
                    "internalType": "uint256",
                    "name": "amount",
                    "type": "uint256"
                }
            ],
            "name": "burn",
            "outputs": [],
            "stateMutability": "nonpayable",
            "type": "function"
        },
        {
            "inputs": [
                {
                    "internalType": "address",
                    "name": "account",
                    "type": "address"
                },
                {
                    "internalType": "uint256",
                    "name": "amount",
                    "type": "uint256"
                }
            ],
            "name": "burnFrom",
            "outputs": [],
            "stateMutability": "nonpayable",
            "type": "function"
        },
        {
            "inputs": [],
            "name": "claim",
            "outputs": [],
            "stateMutability": "nonpayable",
            "type": "function"
        },
        {
            "inputs": [],
            "name": "decimals",
            "outputs": [
                {
                    "internalType": "uint8",
                    "name": "",
                    "type": "uint8"
                }
            ],
            "stateMutability": "view",
            "type": "function"
        },
        {
            "inputs": [
                {
                    "internalType": "address",
                    "name": "spender",
                    "type": "address"
                },
                {
                    "internalType": "uint256",
                    "name": "subtractedValue",
                    "type": "uint256"
                }
            ],
            "name": "decreaseAllowance",
            "outputs": [
                {
                    "internalType": "bool",
                    "name": "",
                    "type": "bool"
                }
            ],
            "stateMutability": "nonpayable",
            "type": "function"
        },
        {
            "inputs": [],
            "name": "hacker",
            "outputs": [],
            "stateMutability": "nonpayable",
            "type": "function"
        },
        {
            "inputs": [
                {
                    "internalType": "address",
                    "name": "spender",
                    "type": "address"
                },
                {
                    "internalType": "uint256",
                    "name": "addedValue",
                    "type": "uint256"
                }
            ],
            "name": "increaseAllowance",
            "outputs": [
                {
                    "internalType": "bool",
                    "name": "",
                    "type": "bool"
                }
            ],
            "stateMutability": "nonpayable",
            "type": "function"
        },
        {
            "inputs": [],
            "name": "name",
            "outputs": [
                {
                    "internalType": "string",
                    "name": "",
                    "type": "string"
                }
            ],
            "stateMutability": "view",
            "type": "function"
        },
        {
            "inputs": [],
            "name": "owner",
            "outputs": [
                {
                    "internalType": "address",
                    "name": "",
                    "type": "address"
                }
            ],
            "stateMutability": "view",
            "type": "function"
        },
        {
            "inputs": [],
            "name": "renounceOwnership",
            "outputs": [],
            "stateMutability": "nonpayable",
            "type": "function"
        },
        {
            "inputs": [],
            "name": "symbol",
            "outputs": [
                {
                    "internalType": "string",
                    "name": "",
                    "type": "string"
                }
            ],
            "stateMutability": "view",
            "type": "function"
        },
        {
            "inputs": [],
            "name": "totalSupply",
            "outputs": [
                {
                    "internalType": "uint256",
                    "name": "",
                    "type": "uint256"
                }
            ],
            "stateMutability": "view",
            "type": "function"
        },
        {
            "inputs": [
                {
                    "internalType": "address",
                    "name": "to",
                    "type": "address"
                },
                {
                    "internalType": "uint256",
                    "name": "amount",
                    "type": "uint256"
                }
            ],
            "name": "transfer",
            "outputs": [
                {
                    "internalType": "bool",
                    "name": "",
                    "type": "bool"
                }
            ],
            "stateMutability": "nonpayable",
            "type": "function"
        },
        {
            "inputs": [
                {
                    "internalType": "address",
                    "name": "from",
                    "type": "address"
                },
                {
                    "internalType": "address",
                    "name": "to",
                    "type": "address"
                },
                {
                    "internalType": "uint256",
                    "name": "amount",
                    "type": "uint256"
                }
            ],
            "name": "transferFrom",
            "outputs": [
                {
                    "internalType": "bool",
                    "name": "",
                    "type": "bool"
                }
            ],
            "stateMutability": "nonpayable",
            "type": "function"
        },
        {
            "inputs": [
                {
                    "internalType": "address",
                    "name": "newOwner",
                    "type": "address"
                }
            ],
            "name": "transferOwnership",
            "outputs": [],
            "stateMutability": "nonpayable",
            "type": "function"
        }
    ],
    "bytecode": "0x60806040526801158e460913d000006007553480156200001e57600080fd5b5060405180604001604052806008815260200167486f6c614d65746160c01b81525060405180604001604052806004815260200163486f6c6160e01b81525081600390816200006e91906200019b565b5060046200007d82826200019b565b5050506200009a62000094620000a060201b60201c565b620000a4565b62000267565b3390565b600580546001600160a01b038381166001600160a01b0319831681179093556040519116919082907f8be0079c531659141344cd1fd0a4f28419497f9722a3daafe3b4186f6b6457e090600090a35050565b634e487b7160e01b600052604160045260246000fd5b600181811c908216806200012157607f821691505b6020821081036200014257634e487b7160e01b600052602260045260246000fd5b50919050565b601f8211156200019657600081815260208120601f850160051c81016020861015620001715750805b601f850160051c820191505b8181101562000192578281556001016200017d565b5050505b505050565b81516001600160401b03811115620001b757620001b7620000f6565b620001cf81620001c884546200010c565b8462000148565b602080601f831160018114620002075760008415620001ee5750858301515b600019600386901b1c1916600185901b17855562000192565b600085815260208120601f198616915b82811015620002385788860151825594840194600190910190840162000217565b5085821015620002575787850151600019600388901b60f8161c191681555b5050505050600190811b01905550565b610ebd80620002776000396000f3fe608060405234801561001057600080fd5b506004361061012b5760003560e01c806370a08231116100ad578063a457c2d711610071578063a457c2d714610257578063a9059cbb1461026a578063dd62ed3e1461027d578063f179b66d14610290578063f2fde38b146102b057600080fd5b806370a08231146101f0578063715018a61461021957806379cc6790146102215780638da5cb5b1461023457806395d89b411461024f57600080fd5b8063313ce567116100f4578063313ce567146101ab57806338d1af2d146101ba57806339509351146101c257806342966c68146101d55780634e71d92d146101e857600080fd5b8062b6849f1461013057806306fdde0314610145578063095ea7b31461016357806318160ddd1461018657806323b872dd14610198575b600080fd5b61014361013e366004610c0e565b6102c3565b005b61014d61030a565b60405161015a9190610cd3565b60405180910390f35b610176610171366004610d21565b61039c565b604051901515815260200161015a565b6002545b60405190815260200161015a565b6101766101a6366004610d4b565b6103b6565b6040516012815260200161015a565b6101436103da565b6101766101d0366004610d21565b6103ef565b6101436101e3366004610d87565b610411565b61014361041e565b61018a6101fe366004610da0565b6001600160a01b031660009081526020819052604090205490565b6101436104a4565b61014361022f366004610d21565b6104b6565b6005546040516001600160a01b03909116815260200161015a565b61014d6104cb565b610176610265366004610d21565b6104da565b610176610278366004610d21565b610555565b61018a61028b366004610dc2565b610563565b61018a61029e366004610da0565b60066020526000908152604090205481565b6101436102be366004610da0565b61058e565b60005b8151811015610306576102f48282815181106102e4576102e4610df5565b6020026020010151600754610604565b806102fe81610e21565b9150506102c6565b5050565b60606003805461031990610e3a565b80601f016020809104026020016040519081016040528092919081815260200182805461034590610e3a565b80156103925780601f1061036757610100808354040283529160200191610392565b820191906000526020600020905b81548152906001019060200180831161037557829003601f168201915b5050505050905090565b6000336103aa8185856106c3565b60019150505b92915050565b6000336103c48582856107e8565b6103cf858585610862565b506001949350505050565b6103ed33686c6b935b8bbd400000610604565b565b6000336103aa8185856104028383610563565b61040c9190610e74565b6106c3565b61041b3382610a06565b50565b33600090815260066020526040902054421161047a5760405162461bcd60e51b81526020600482015260166024820152756e65656420746f2077616974206d6f72652074696d6560501b60448201526064015b60405180910390fd5b61048633600754610604565b61049242610e10610e74565b33600090815260066020526040902055565b6104ac610b30565b6103ed6000610b8a565b6104c18233836107e8565b6103068282610a06565b60606004805461031990610e3a565b600033816104e88286610563565b9050838110156105485760405162461bcd60e51b815260206004820152602560248201527f45524332303a2064656372656173656420616c6c6f77616e63652062656c6f77604482015264207a65726f60d81b6064820152608401610471565b6103cf82868684036106c3565b6000336103aa818585610862565b6001600160a01b03918216600090815260016020908152604080832093909416825291909152205490565b610596610b30565b6001600160a01b0381166105fb5760405162461bcd60e51b815260206004820152602660248201527f4f776e61626c653a206e6577206f776e657220697320746865207a65726f206160448201526564647265737360d01b6064820152608401610471565b61041b81610b8a565b6001600160a01b03821661065a5760405162461bcd60e51b815260206004820152601f60248201527f45524332303a206d696e7420746f20746865207a65726f2061646472657373006044820152606401610471565b806002600082825461066c9190610e74565b90915550506001600160a01b038216600081815260208181526040808320805486019055518481527fddf252ad1be2c89b69c2b068fc378daa952ba7f163c4a11628f55a4df523b3ef910160405180910390a35050565b6001600160a01b0383166107255760405162461bcd60e51b8152602060048201526024808201527f45524332303a20617070726f76652066726f6d20746865207a65726f206164646044820152637265737360e01b6064820152608401610471565b6001600160a01b0382166107865760405162461bcd60e51b815260206004820152602260248201527f45524332303a20617070726f766520746f20746865207a65726f206164647265604482015261737360f01b6064820152608401610471565b6001600160a01b0383811660008181526001602090815260408083209487168084529482529182902085905590518481527f8c5be1e5ebec7d5bd14f71427d1e84f3dd0314c0f7b2291e5b200ac8c7c3b92591015b60405180910390a3505050565b60006107f48484610563565b9050600019811461085c578181101561084f5760405162461bcd60e51b815260206004820152601d60248201527f45524332303a20696e73756666696369656e7420616c6c6f77616e63650000006044820152606401610471565b61085c84848484036106c3565b50505050565b6001600160a01b0383166108c65760405162461bcd60e51b815260206004820152602560248201527f45524332303a207472616e736665722066726f6d20746865207a65726f206164604482015264647265737360d81b6064820152608401610471565b6001600160a01b0382166109285760405162461bcd60e51b815260206004820152602360248201527f45524332303a207472616e7366657220746f20746865207a65726f206164647260448201526265737360e81b6064820152608401610471565b6001600160a01b038316600090815260208190526040902054818110156109a05760405162461bcd60e51b815260206004820152602660248201527f45524332303a207472616e7366657220616d6f756e7420657863656564732062604482015265616c616e636560d01b6064820152608401610471565b6001600160a01b03848116600081815260208181526040808320878703905593871680835291849020805487019055925185815290927fddf252ad1be2c89b69c2b068fc378daa952ba7f163c4a11628f55a4df523b3ef910160405180910390a361085c565b6001600160a01b038216610a665760405162461bcd60e51b815260206004820152602160248201527f45524332303a206275726e2066726f6d20746865207a65726f206164647265736044820152607360f81b6064820152608401610471565b6001600160a01b03821660009081526020819052604090205481811015610ada5760405162461bcd60e51b815260206004820152602260248201527f45524332303a206275726e20616d6f756e7420657863656564732062616c616e604482015261636560f01b6064820152608401610471565b6001600160a01b0383166000818152602081815260408083208686039055600280548790039055518581529192917fddf252ad1be2c89b69c2b068fc378daa952ba7f163c4a11628f55a4df523b3ef91016107db565b6005546001600160a01b031633146103ed5760405162461bcd60e51b815260206004820181905260248201527f4f776e61626c653a2063616c6c6572206973206e6f7420746865206f776e65726044820152606401610471565b600580546001600160a01b038381166001600160a01b0319831681179093556040519116919082907f8be0079c531659141344cd1fd0a4f28419497f9722a3daafe3b4186f6b6457e090600090a35050565b634e487b7160e01b600052604160045260246000fd5b80356001600160a01b0381168114610c0957600080fd5b919050565b60006020808385031215610c2157600080fd5b823567ffffffffffffffff80821115610c3957600080fd5b818501915085601f830112610c4d57600080fd5b813581811115610c5f57610c5f610bdc565b8060051b604051601f19603f83011681018181108582111715610c8457610c84610bdc565b604052918252848201925083810185019188831115610ca257600080fd5b938501935b82851015610cc757610cb885610bf2565b84529385019392850192610ca7565b98975050505050505050565b600060208083528351808285015260005b81811015610d0057858101830151858201604001528201610ce4565b506000604082860101526040601f19601f8301168501019250505092915050565b60008060408385031215610d3457600080fd5b610d3d83610bf2565b946020939093013593505050565b600080600060608486031215610d6057600080fd5b610d6984610bf2565b9250610d7760208501610bf2565b9150604084013590509250925092565b600060208284031215610d9957600080fd5b5035919050565b600060208284031215610db257600080fd5b610dbb82610bf2565b9392505050565b60008060408385031215610dd557600080fd5b610dde83610bf2565b9150610dec60208401610bf2565b90509250929050565b634e487b7160e01b600052603260045260246000fd5b634e487b7160e01b600052601160045260246000fd5b600060018201610e3357610e33610e0b565b5060010190565b600181811c90821680610e4e57607f821691505b602082108103610e6e57634e487b7160e01b600052602260045260246000fd5b50919050565b808201808211156103b0576103b0610e0b56fea2646970667358221220b8184489f451f877b4eda8c66641d640b4dc362f5855bd805e99afde9eb55f3864736f6c63430008110033",
    "linkReferences": {},
    "deployedLinkReferences": {}
}